{
  "_format": "hh-sol-artifact-1",
  "contractName": "MyEpicNFT",
  "sourceName": "contracts/MyEpicNFT.sol",
  "abi": [
    {
      "inputs": [],
      "stateMutability": "nonpayable",
      "type": "constructor"
    },
    {
      "anonymous": false,
      "inputs": [
        {
          "indexed": true,
          "internalType": "address",
          "name": "owner",
          "type": "address"
        },
        {
          "indexed": true,
          "internalType": "address",
          "name": "approved",
          "type": "address"
        },
        {
          "indexed": true,
          "internalType": "uint256",
          "name": "tokenId",
          "type": "uint256"
        }
      ],
      "name": "Approval",
      "type": "event"
    },
    {
      "anonymous": false,
      "inputs": [
        {
          "indexed": true,
          "internalType": "address",
          "name": "owner",
          "type": "address"
        },
        {
          "indexed": true,
          "internalType": "address",
          "name": "operator",
          "type": "address"
        },
        {
          "indexed": false,
          "internalType": "bool",
          "name": "approved",
          "type": "bool"
        }
      ],
      "name": "ApprovalForAll",
      "type": "event"
    },
    {
      "anonymous": false,
      "inputs": [
        {
          "indexed": false,
          "internalType": "address",
          "name": "sender",
          "type": "address"
        },
        {
          "indexed": false,
          "internalType": "uint256",
          "name": "tokenId",
          "type": "uint256"
        }
      ],
      "name": "NewEpicNFTMinted",
      "type": "event"
    },
    {
      "anonymous": false,
      "inputs": [
        {
          "indexed": true,
          "internalType": "address",
          "name": "from",
          "type": "address"
        },
        {
          "indexed": true,
          "internalType": "address",
          "name": "to",
          "type": "address"
        },
        {
          "indexed": true,
          "internalType": "uint256",
          "name": "tokenId",
          "type": "uint256"
        }
      ],
      "name": "Transfer",
      "type": "event"
    },
    {
      "inputs": [
        {
          "internalType": "address",
          "name": "to",
          "type": "address"
        },
        {
          "internalType": "uint256",
          "name": "tokenId",
          "type": "uint256"
        }
      ],
      "name": "approve",
      "outputs": [],
      "stateMutability": "nonpayable",
      "type": "function"
    },
    {
      "inputs": [
        {
          "internalType": "address",
          "name": "owner",
          "type": "address"
        }
      ],
      "name": "balanceOf",
      "outputs": [
        {
          "internalType": "uint256",
          "name": "",
          "type": "uint256"
        }
      ],
      "stateMutability": "view",
      "type": "function"
    },
    {
      "inputs": [
        {
          "internalType": "uint256",
          "name": "tokenId",
          "type": "uint256"
        }
      ],
      "name": "getApproved",
      "outputs": [
        {
          "internalType": "address",
          "name": "",
          "type": "address"
        }
      ],
      "stateMutability": "view",
      "type": "function"
    },
    {
      "inputs": [],
      "name": "getTotalNFTsMintedCount",
      "outputs": [
        {
          "internalType": "uint256",
          "name": "",
          "type": "uint256"
        }
      ],
      "stateMutability": "view",
      "type": "function"
    },
    {
      "inputs": [
        {
          "internalType": "address",
          "name": "owner",
          "type": "address"
        },
        {
          "internalType": "address",
          "name": "operator",
          "type": "address"
        }
      ],
      "name": "isApprovedForAll",
      "outputs": [
        {
          "internalType": "bool",
          "name": "",
          "type": "bool"
        }
      ],
      "stateMutability": "view",
      "type": "function"
    },
    {
      "inputs": [],
      "name": "makeAnEpicNFT",
      "outputs": [],
      "stateMutability": "nonpayable",
      "type": "function"
    },
    {
      "inputs": [],
      "name": "name",
      "outputs": [
        {
          "internalType": "string",
          "name": "",
          "type": "string"
        }
      ],
      "stateMutability": "view",
      "type": "function"
    },
    {
      "inputs": [
        {
          "internalType": "uint256",
          "name": "tokenId",
          "type": "uint256"
        }
      ],
      "name": "ownerOf",
      "outputs": [
        {
          "internalType": "address",
          "name": "",
          "type": "address"
        }
      ],
      "stateMutability": "view",
      "type": "function"
    },
    {
      "inputs": [
        {
          "internalType": "uint256",
          "name": "tokenId",
          "type": "uint256"
        }
      ],
      "name": "pickRandomColor",
      "outputs": [
        {
          "internalType": "string",
          "name": "",
          "type": "string"
        }
      ],
      "stateMutability": "view",
      "type": "function"
    },
    {
      "inputs": [
        {
          "internalType": "uint256",
          "name": "tokenId",
          "type": "uint256"
        }
      ],
      "name": "pickRandomFirstWord",
      "outputs": [
        {
          "internalType": "string",
          "name": "",
          "type": "string"
        }
      ],
      "stateMutability": "view",
      "type": "function"
    },
    {
      "inputs": [
        {
          "internalType": "address",
          "name": "from",
          "type": "address"
        },
        {
          "internalType": "address",
          "name": "to",
          "type": "address"
        },
        {
          "internalType": "uint256",
          "name": "tokenId",
          "type": "uint256"
        }
      ],
      "name": "safeTransferFrom",
      "outputs": [],
      "stateMutability": "nonpayable",
      "type": "function"
    },
    {
      "inputs": [
        {
          "internalType": "address",
          "name": "from",
          "type": "address"
        },
        {
          "internalType": "address",
          "name": "to",
          "type": "address"
        },
        {
          "internalType": "uint256",
          "name": "tokenId",
          "type": "uint256"
        },
        {
          "internalType": "bytes",
          "name": "_data",
          "type": "bytes"
        }
      ],
      "name": "safeTransferFrom",
      "outputs": [],
      "stateMutability": "nonpayable",
      "type": "function"
    },
    {
      "inputs": [
        {
          "internalType": "address",
          "name": "operator",
          "type": "address"
        },
        {
          "internalType": "bool",
          "name": "approved",
          "type": "bool"
        }
      ],
      "name": "setApprovalForAll",
      "outputs": [],
      "stateMutability": "nonpayable",
      "type": "function"
    },
    {
      "inputs": [
        {
          "internalType": "bytes4",
          "name": "interfaceId",
          "type": "bytes4"
        }
      ],
      "name": "supportsInterface",
      "outputs": [
        {
          "internalType": "bool",
          "name": "",
          "type": "bool"
        }
      ],
      "stateMutability": "view",
      "type": "function"
    },
    {
      "inputs": [],
      "name": "symbol",
      "outputs": [
        {
          "internalType": "string",
          "name": "",
          "type": "string"
        }
      ],
      "stateMutability": "view",
      "type": "function"
    },
    {
      "inputs": [
        {
          "internalType": "uint256",
          "name": "tokenId",
          "type": "uint256"
        }
      ],
      "name": "tokenURI",
      "outputs": [
        {
          "internalType": "string",
          "name": "",
          "type": "string"
        }
      ],
      "stateMutability": "view",
      "type": "function"
    },
    {
      "inputs": [
        {
          "internalType": "address",
          "name": "from",
          "type": "address"
        },
        {
          "internalType": "address",
          "name": "to",
          "type": "address"
        },
        {
          "internalType": "uint256",
          "name": "tokenId",
          "type": "uint256"
        }
      ],
      "name": "transferFrom",
      "outputs": [],
      "stateMutability": "nonpayable",
      "type": "function"
    }
  ],
  "bytecode": "0x6080604052601e60085560405180610100016040528060d381526020016200457460d39139600990805190602001906200003b92919062000abe565b506040518060800160405280605681526020016200464760569139600a90805190602001906200006d92919062000abe565b50604051806103c001604052806040518060400160405280600881526020017f416c67617265746500000000000000000000000000000000000000000000000081525081526020016040518060400160405280600881526020017f426562656369746100000000000000000000000000000000000000000000000081525081526020016040518060400160405280600781526020017f42656c6c6163610000000000000000000000000000000000000000000000000081525081526020016040518060400160405280600781526020017f426963686f74610000000000000000000000000000000000000000000000000081525081526020016040518060400160405280600781526020017f42656c6c6163610000000000000000000000000000000000000000000000000081525081526020016040518060400160405280600681526020017f43616e677269000000000000000000000000000000000000000000000000000081525081526020016040518060400160405280600681526020017f436861766f73000000000000000000000000000000000000000000000000000081525081526020016040518060400160405280600581526020017f436f6d626900000000000000000000000000000000000000000000000000000081525081526020016040518060400160405280600781526020017f436f72696c6c6f0000000000000000000000000000000000000000000000000081525081526020016040518060400160405280600481526020017f447572610000000000000000000000000000000000000000000000000000000081525081526020016040518060400160405280600781526020017f46726f6e74656f0000000000000000000000000000000000000000000000000081525081526020016040518060400160405280600581526020017f477561796f00000000000000000000000000000000000000000000000000000081525081526020016040518060400160405280600481526020017f4d6572610000000000000000000000000000000000000000000000000000000081525081526020016040518060400160405280600781526020017f506572726561720000000000000000000000000000000000000000000000000081525081526020016040518060400160405280600681526020017f506963686172000000000000000000000000000000000000000000000000000081525081526020016040518060400160405280600781526020017f506971756574650000000000000000000000000000000000000000000000000081525081526020016040518060400160405280600781526020017f546972616572610000000000000000000000000000000000000000000000000081525081526020016040518060400160405280600881526020017f48616e677569617200000000000000000000000000000000000000000000000081525081526020016040518060400160405280600881526020017f41636963616c616f00000000000000000000000000000000000000000000000081525081526020016040518060400160405280600681526020017f427265676172000000000000000000000000000000000000000000000000000081525081526020016040518060400160405280600681526020017f42727574616c000000000000000000000000000000000000000000000000000081525081526020016040518060400160405280600481526020017f4e656e650000000000000000000000000000000000000000000000000000000081525081526020016040518060400160405280600481526020017f476174610000000000000000000000000000000000000000000000000000000081525081526020016040518060400160405280600681526020017f50657272656f000000000000000000000000000000000000000000000000000081525081526020016040518060400160405280600581526020017f4368616d6100000000000000000000000000000000000000000000000000000081525081526020016040518060400160405280600781526020017f53726966696e6f0000000000000000000000000000000000000000000000000081525081526020016040518060400160405280600581526020017f477561736100000000000000000000000000000000000000000000000000000081525081526020016040518060400160405280600681526020017f44656d626f77000000000000000000000000000000000000000000000000000081525081526020016040518060400160405280600781526020017f42656c6c61636f0000000000000000000000000000000000000000000000000081525081526020016040518060400160405280600481526020017f4265626500000000000000000000000000000000000000000000000000000000815250815250600b90601e6200077492919062000b4f565b506040518060c001604052806040518060400160405280600381526020017f726564000000000000000000000000000000000000000000000000000000000081525081526020016040518060400160405280600781526020017f236533306564630000000000000000000000000000000000000000000000000081525081526020016040518060400160405280600581526020017f626c61636b00000000000000000000000000000000000000000000000000000081525081526020016040518060400160405280600681526020017f79656c6c6f77000000000000000000000000000000000000000000000000000081525081526020016040518060400160405280600481526020017f626c75650000000000000000000000000000000000000000000000000000000081525081526020016040518060400160405280600581526020017f677265656e000000000000000000000000000000000000000000000000000000815250815250600c906006620008f292919062000bb6565b503480156200090057600080fd5b506040518060400160405280600981526020017f5371756172654e465400000000000000000000000000000000000000000000008152506040518060400160405280600681526020017f535155415245000000000000000000000000000000000000000000000000000081525081600090805190602001906200098592919062000abe565b5080600190805190602001906200099e92919062000abe565b505050620009ec6040518060400160405280601e81526020017f54686973206973206d79204e465420636f6e74726163742e20576f6168210000815250620009f260201b620011411760201c565b62000dd7565b62000a928160405160240162000a09919062000ceb565b6040516020818303038152906040527f41304fac000000000000000000000000000000000000000000000000000000007bffffffffffffffffffffffffffffffffffffffffffffffffffffffff19166020820180517bffffffffffffffffffffffffffffffffffffffffffffffffffffffff838183161783525050505062000a9560201b60201c565b50565b60008151905060006a636f6e736f6c652e6c6f679050602083016000808483855afa5050505050565b82805462000acc9062000d61565b90600052602060002090601f01602090048101928262000af0576000855562000b3c565b82601f1062000b0b57805160ff191683800117855562000b3c565b8280016001018555821562000b3c579182015b8281111562000b3b57825182559160200191906001019062000b1e565b5b50905062000b4b919062000c1d565b5090565b82805482825590600052602060002090810192821562000ba3579160200282015b8281111562000ba257825182908051906020019062000b9192919062000abe565b509160200191906001019062000b70565b5b50905062000bb2919062000c3c565b5090565b82805482825590600052602060002090810192821562000c0a579160200282015b8281111562000c0957825182908051906020019062000bf892919062000abe565b509160200191906001019062000bd7565b5b50905062000c19919062000c3c565b5090565b5b8082111562000c3857600081600090555060010162000c1e565b5090565b5b8082111562000c60576000818162000c56919062000c64565b5060010162000c3d565b5090565b50805462000c729062000d61565b6000825580601f1062000c86575062000ca7565b601f01602090049060005260206000209081019062000ca6919062000c1d565b5b50565b600062000cb78262000d0f565b62000cc3818562000d1a565b935062000cd581856020860162000d2b565b62000ce08162000dc6565b840191505092915050565b6000602082019050818103600083015262000d07818462000caa565b905092915050565b600081519050919050565b600082825260208201905092915050565b60005b8381101562000d4b57808201518184015260208101905062000d2e565b8381111562000d5b576000848401525b50505050565b6000600282049050600182168062000d7a57607f821691505b6020821081141562000d915762000d9062000d97565b5b50919050565b7f4e487b7100000000000000000000000000000000000000000000000000000000600052602260045260246000fd5b6000601f19601f8301169050919050565b61378d8062000de76000396000f3fe608060405234801561001057600080fd5b506004361061010b5760003560e01c80636352211e116100a2578063aaae0a0811610071578063aaae0a08146102dc578063b88d4fde146102fa578063c87b56dd14610316578063de9d132f14610346578063e985e9c5146103505761010b565b80636352211e1461024257806370a082311461027257806395d89b41146102a2578063a22cb465146102c05761010b565b806323b872dd116100de57806323b872dd146101aa5780632de38d68146101c657806342842e0e146101f6578063514dc8c6146102125761010b565b806301ffc9a71461011057806306fdde0314610140578063081812fc1461015e578063095ea7b31461018e575b600080fd5b61012a600480360381019061012591906123d4565b610380565b6040516101379190612fe3565b60405180910390f35b610148610462565b6040516101559190612ffe565b60405180910390f35b61017860048036038101906101739190612426565b6104f4565b6040516101859190612f53565b60405180910390f35b6101a860048036038101906101a39190612398565b610579565b005b6101c460048036038101906101bf9190612292565b610691565b005b6101e060048036038101906101db9190612426565b6106f1565b6040516101ed9190612ffe565b60405180910390f35b610210600480360381019061020b9190612292565b61080f565b005b61022c60048036038101906102279190612426565b61082f565b6040516102399190612ffe565b60405180910390f35b61025c60048036038101906102579190612426565b61094d565b6040516102699190612f53565b60405180910390f35b61028c6004803603810190610287919061222d565b6109ff565b604051610299919061327e565b60405180910390f35b6102aa610ab7565b6040516102b79190612ffe565b60405180910390f35b6102da60048036038101906102d5919061235c565b610b49565b005b6102e4610cca565b6040516102f1919061327e565b60405180910390f35b610314600480360381019061030f91906122e1565b610cdb565b005b610330600480360381019061032b9190612426565b610d3d565b60405161033d9190612ffe565b60405180910390f35b61034e610e8f565b005b61036a60048036038101906103659190612256565b6110ad565b6040516103779190612fe3565b60405180910390f35b60007f80ac58cd000000000000000000000000000000000000000000000000000000007bffffffffffffffffffffffffffffffffffffffffffffffffffffffff1916827bffffffffffffffffffffffffffffffffffffffffffffffffffffffff1916148061044b57507f5b5e139f000000000000000000000000000000000000000000000000000000007bffffffffffffffffffffffffffffffffffffffffffffffffffffffff1916827bffffffffffffffffffffffffffffffffffffffffffffffffffffffff1916145b8061045b575061045a826111da565b5b9050919050565b6060600080546104719061351d565b80601f016020809104026020016040519081016040528092919081815260200182805461049d9061351d565b80156104ea5780601f106104bf576101008083540402835291602001916104ea565b820191906000526020600020905b8154815290600101906020018083116104cd57829003601f168201915b5050505050905090565b60006104ff82611244565b61053e576040517f08c379a0000000000000000000000000000000000000000000000000000000008152600401610535906131be565b60405180910390fd5b6004600083815260200190815260200160002060009054906101000a900473ffffffffffffffffffffffffffffffffffffffff169050919050565b60006105848261094d565b90508073ffffffffffffffffffffffffffffffffffffffff168373ffffffffffffffffffffffffffffffffffffffff1614156105f5576040517f08c379a00000000000000000000000000000000000000000000000000000000081526004016105ec9061321e565b60405180910390fd5b8073ffffffffffffffffffffffffffffffffffffffff166106146112b0565b73ffffffffffffffffffffffffffffffffffffffff16148061064357506106428161063d6112b0565b6110ad565b5b610682576040517f08c379a0000000000000000000000000000000000000000000000000000000008152600401610679906130fe565b60405180910390fd5b61068c83836112b8565b505050565b6106a261069c6112b0565b82611371565b6106e1576040517f08c379a00000000000000000000000000000000000000000000000000000000081526004016106d89061323e565b60405180910390fd5b6106ec83838361144f565b505050565b60606000610725610701846116ab565b6040516020016107119190612eed565b604051602081830303815290604052611858565b9050600b80549050816107389190613598565b9050600b8181548110610774577f4e487b7100000000000000000000000000000000000000000000000000000000600052603260045260246000fd5b9060005260206000200180546107899061351d565b80601f01602080910402602001604051908101604052809291908181526020018280546107b59061351d565b80156108025780601f106107d757610100808354040283529160200191610802565b820191906000526020600020905b8154815290600101906020018083116107e557829003601f168201915b5050505050915050919050565b61082a83838360405180602001604052806000815250610cdb565b505050565b6060600061086361083f846116ab565b60405160200161084f9190612f31565b604051602081830303815290604052611858565b9050600c80549050816108769190613598565b9050600c81815481106108b2577f4e487b7100000000000000000000000000000000000000000000000000000000600052603260045260246000fd5b9060005260206000200180546108c79061351d565b80601f01602080910402602001604051908101604052809291908181526020018280546108f39061351d565b80156109405780601f1061091557610100808354040283529160200191610940565b820191906000526020600020905b81548152906001019060200180831161092357829003601f168201915b5050505050915050919050565b6000806002600084815260200190815260200160002060009054906101000a900473ffffffffffffffffffffffffffffffffffffffff169050600073ffffffffffffffffffffffffffffffffffffffff168173ffffffffffffffffffffffffffffffffffffffff1614156109f6576040517f08c379a00000000000000000000000000000000000000000000000000000000081526004016109ed9061313e565b60405180910390fd5b80915050919050565b60008073ffffffffffffffffffffffffffffffffffffffff168273ffffffffffffffffffffffffffffffffffffffff161415610a70576040517f08c379a0000000000000000000000000000000000000000000000000000000008152600401610a679061311e565b60405180910390fd5b600360008373ffffffffffffffffffffffffffffffffffffffff1673ffffffffffffffffffffffffffffffffffffffff168152602001908152602001600020549050919050565b606060018054610ac69061351d565b80601f0160208091040260200160405190810160405280929190818152602001828054610af29061351d565b8015610b3f5780601f10610b1457610100808354040283529160200191610b3f565b820191906000526020600020905b815481529060010190602001808311610b2257829003601f168201915b5050505050905090565b610b516112b0565b73ffffffffffffffffffffffffffffffffffffffff168273ffffffffffffffffffffffffffffffffffffffff161415610bbf576040517f08c379a0000000000000000000000000000000000000000000000000000000008152600401610bb6906130be565b60405180910390fd5b8060056000610bcc6112b0565b73ffffffffffffffffffffffffffffffffffffffff1673ffffffffffffffffffffffffffffffffffffffff16815260200190815260200160002060008473ffffffffffffffffffffffffffffffffffffffff1673ffffffffffffffffffffffffffffffffffffffff16815260200190815260200160002060006101000a81548160ff0219169083151502179055508173ffffffffffffffffffffffffffffffffffffffff16610c796112b0565b73ffffffffffffffffffffffffffffffffffffffff167f17307eab39ab6107e8899845ad3d59bd9653f200f220920489ca2b5937696c3183604051610cbe9190612fe3565b60405180910390a35050565b6000610cd6600761188b565b905090565b610cec610ce66112b0565b83611371565b610d2b576040517f08c379a0000000000000000000000000000000000000000000000000000000008152600401610d229061323e565b60405180910390fd5b610d3784848484611899565b50505050565b6060610d4882611244565b610d87576040517f08c379a0000000000000000000000000000000000000000000000000000000008152600401610d7e9061319e565b60405180910390fd5b6000600660008481526020019081526020016000208054610da79061351d565b80601f0160208091040260200160405190810160405280929190818152602001828054610dd39061351d565b8015610e205780601f10610df557610100808354040283529160200191610e20565b820191906000526020600020905b815481529060010190602001808311610e0357829003601f168201915b505050505090506000610e316118f5565b9050600081511415610e47578192505050610e8a565b600082511115610e7c578082604051602001610e64929190612e3b565b60405160208183030381529060405292505050610e8a565b610e858461190c565b925050505b919050565b6000610e9b600761188b565b90508060085411610ee1576040517f08c379a0000000000000000000000000000000000000000000000000000000008152600401610ed89061325e565b60405180910390fd5b6000610eec826106f1565b9050600081604051602001610f019190612e24565b60405160208183030381529060405290506000610f1d8461082f565b90506000600982600a85604051602001610f3a9493929190612e5f565b60405160208183030381529060405290506000610f7f84610f5a846119b3565b604051602001610f6b929190612ea8565b6040516020818303038152906040526119b3565b9050600081604051602001610f949190612f0f565b6040516020818303038152906040529050610fe36040518060400160405280601581526020017f0a2d2d2d2d2d2d2d2d2d2d2d2d2d2d2d2d2d2d2d2d0000000000000000000000815250611141565b610fec81611141565b61102a6040518060400160405280601581526020017f2d2d2d2d2d2d2d2d2d2d2d2d2d2d2d2d2d2d2d2d0a0000000000000000000000815250611141565b6110343388611b71565b61103e8782611b8f565b6110486007611c03565b61106b6040518060600160405280602581526020016136f3602591398833611c19565b7febb98688741ffa4c7589bf325de30cf7becb63de567842e1ccdb6cb949fdc82c338860405161109c929190612fba565b60405180910390a150505050505050565b6000600560008473ffffffffffffffffffffffffffffffffffffffff1673ffffffffffffffffffffffffffffffffffffffff16815260200190815260200160002060008373ffffffffffffffffffffffffffffffffffffffff1673ffffffffffffffffffffffffffffffffffffffff16815260200190815260200160002060009054906101000a900460ff16905092915050565b6111d7816040516024016111559190612ffe565b6040516020818303038152906040527f41304fac000000000000000000000000000000000000000000000000000000007bffffffffffffffffffffffffffffffffffffffffffffffffffffffff19166020820180517bffffffffffffffffffffffffffffffffffffffffffffffffffffffff8381831617835250505050611cb8565b50565b60007f01ffc9a7000000000000000000000000000000000000000000000000000000007bffffffffffffffffffffffffffffffffffffffffffffffffffffffff1916827bffffffffffffffffffffffffffffffffffffffffffffffffffffffff1916149050919050565b60008073ffffffffffffffffffffffffffffffffffffffff166002600084815260200190815260200160002060009054906101000a900473ffffffffffffffffffffffffffffffffffffffff1673ffffffffffffffffffffffffffffffffffffffff1614159050919050565b600033905090565b816004600083815260200190815260200160002060006101000a81548173ffffffffffffffffffffffffffffffffffffffff021916908373ffffffffffffffffffffffffffffffffffffffff160217905550808273ffffffffffffffffffffffffffffffffffffffff1661132b8361094d565b73ffffffffffffffffffffffffffffffffffffffff167f8c5be1e5ebec7d5bd14f71427d1e84f3dd0314c0f7b2291e5b200ac8c7c3b92560405160405180910390a45050565b600061137c82611244565b6113bb576040517f08c379a00000000000000000000000000000000000000000000000000000000081526004016113b2906130de565b60405180910390fd5b60006113c68361094d565b90508073ffffffffffffffffffffffffffffffffffffffff168473ffffffffffffffffffffffffffffffffffffffff16148061143557508373ffffffffffffffffffffffffffffffffffffffff1661141d846104f4565b73ffffffffffffffffffffffffffffffffffffffff16145b80611446575061144581856110ad565b5b91505092915050565b8273ffffffffffffffffffffffffffffffffffffffff1661146f8261094d565b73ffffffffffffffffffffffffffffffffffffffff16146114c5576040517f08c379a00000000000000000000000000000000000000000000000000000000081526004016114bc906131de565b60405180910390fd5b600073ffffffffffffffffffffffffffffffffffffffff168273ffffffffffffffffffffffffffffffffffffffff161415611535576040517f08c379a000000000000000000000000000000000000000000000000000000000815260040161152c9061309e565b60405180910390fd5b611540838383611ce1565b61154b6000826112b8565b6001600360008573ffffffffffffffffffffffffffffffffffffffff1673ffffffffffffffffffffffffffffffffffffffff168152602001908152602001600020600082825461159b9190613433565b925050819055506001600360008473ffffffffffffffffffffffffffffffffffffffff1673ffffffffffffffffffffffffffffffffffffffff16815260200190815260200160002060008282546115f29190613352565b92505081905550816002600083815260200190815260200160002060006101000a81548173ffffffffffffffffffffffffffffffffffffffff021916908373ffffffffffffffffffffffffffffffffffffffff160217905550808273ffffffffffffffffffffffffffffffffffffffff168473ffffffffffffffffffffffffffffffffffffffff167fddf252ad1be2c89b69c2b068fc378daa952ba7f163c4a11628f55a4df523b3ef60405160405180910390a4505050565b606060008214156116f3576040518060400160405280600181526020017f30000000000000000000000000000000000000000000000000000000000000008152509050611853565b600082905060005b6000821461172557808061170e9061354f565b915050600a8261171e91906133a8565b91506116fb565b60008167ffffffffffffffff811115611767577f4e487b7100000000000000000000000000000000000000000000000000000000600052604160045260246000fd5b6040519080825280601f01601f1916602001820160405280156117995781602001600182028036833780820191505090505b5090505b6000851461184c576001826117b29190613433565b9150600a856117c19190613598565b60306117cd9190613352565b60f81b818381518110611809577f4e487b7100000000000000000000000000000000000000000000000000000000600052603260045260246000fd5b60200101907effffffffffffffffffffffffffffffffffffffffffffffffffffffffffffff1916908160001a905350600a8561184591906133a8565b945061179d565b8093505050505b919050565b60008160405160200161186b9190612e24565b6040516020818303038152906040528051906020012060001c9050919050565b600081600001549050919050565b6118a484848461144f565b6118b084848484611ce6565b6118ef576040517f08c379a00000000000000000000000000000000000000000000000000000000081526004016118e69061305e565b60405180910390fd5b50505050565b606060405180602001604052806000815250905090565b606061191782611244565b611956576040517f08c379a000000000000000000000000000000000000000000000000000000000815260040161194d906131fe565b60405180910390fd5b60006119606118f5565b9050600081511161198057604051806020016040528060008152506119ab565b8061198a846116ab565b60405160200161199b929190612e3b565b6040516020818303038152906040525b915050919050565b606060008251905060008114156119dc5760405180602001604052806000815250915050611b6c565b600060036002836119ed9190613352565b6119f791906133a8565b6004611a0391906133d9565b90506000602082611a149190613352565b67ffffffffffffffff811115611a53577f4e487b7100000000000000000000000000000000000000000000000000000000600052604160045260246000fd5b6040519080825280601f01601f191660200182016040528015611a855781602001600182028036833780820191505090505b5090506000604051806060016040528060408152602001613718604091399050600181016020830160005b86811015611b295760038101905062ffffff818a015116603f8160121c168401518060081b905060ff603f83600c1c1686015116810190508060081b905060ff603f8360061c1686015116810190508060081b905060ff603f831686015116810190508060e01b90508084526004840193505050611ab0565b506003860660018114611b435760028114611b5357611b5e565b613d3d60f01b6002830352611b5e565b603d60f81b60018303525b508484525050819450505050505b919050565b611b8b828260405180602001604052806000815250611e7d565b5050565b611b9882611244565b611bd7576040517f08c379a0000000000000000000000000000000000000000000000000000000008152600401611bce9061315e565b60405180910390fd5b80600660008481526020019081526020016000209080519060200190611bfe9291906120b9565b505050565b6001816000016000828254019250508190555050565b611cb3838383604051602401611c3193929190613020565b6040516020818303038152906040527fe3849f79000000000000000000000000000000000000000000000000000000007bffffffffffffffffffffffffffffffffffffffffffffffffffffffff19166020820180517bffffffffffffffffffffffffffffffffffffffffffffffffffffffff8381831617835250505050611cb8565b505050565b60008151905060006a636f6e736f6c652e6c6f679050602083016000808483855afa5050505050565b505050565b6000611d078473ffffffffffffffffffffffffffffffffffffffff16611ed8565b15611e70578373ffffffffffffffffffffffffffffffffffffffff1663150b7a02611d306112b0565b8786866040518563ffffffff1660e01b8152600401611d529493929190612f6e565b602060405180830381600087803b158015611d6c57600080fd5b505af1925050508015611d9d57506040513d601f19601f82011682018060405250810190611d9a91906123fd565b60015b611e20573d8060008114611dcd576040519150601f19603f3d011682016040523d82523d6000602084013e611dd2565b606091505b50600081511415611e18576040517f08c379a0000000000000000000000000000000000000000000000000000000008152600401611e0f9061305e565b60405180910390fd5b805181602001fd5b63150b7a0260e01b7bffffffffffffffffffffffffffffffffffffffffffffffffffffffff1916817bffffffffffffffffffffffffffffffffffffffffffffffffffffffff191614915050611e75565b600190505b949350505050565b611e878383611eeb565b611e946000848484611ce6565b611ed3576040517f08c379a0000000000000000000000000000000000000000000000000000000008152600401611eca9061305e565b60405180910390fd5b505050565b600080823b905060008111915050919050565b600073ffffffffffffffffffffffffffffffffffffffff168273ffffffffffffffffffffffffffffffffffffffff161415611f5b576040517f08c379a0000000000000000000000000000000000000000000000000000000008152600401611f529061317e565b60405180910390fd5b611f6481611244565b15611fa4576040517f08c379a0000000000000000000000000000000000000000000000000000000008152600401611f9b9061307e565b60405180910390fd5b611fb060008383611ce1565b6001600360008473ffffffffffffffffffffffffffffffffffffffff1673ffffffffffffffffffffffffffffffffffffffff16815260200190815260200160002060008282546120009190613352565b92505081905550816002600083815260200190815260200160002060006101000a81548173ffffffffffffffffffffffffffffffffffffffff021916908373ffffffffffffffffffffffffffffffffffffffff160217905550808273ffffffffffffffffffffffffffffffffffffffff16600073ffffffffffffffffffffffffffffffffffffffff167fddf252ad1be2c89b69c2b068fc378daa952ba7f163c4a11628f55a4df523b3ef60405160405180910390a45050565b8280546120c59061351d565b90600052602060002090601f0160209004810192826120e7576000855561212e565b82601f1061210057805160ff191683800117855561212e565b8280016001018555821561212e579182015b8281111561212d578251825591602001919060010190612112565b5b50905061213b919061213f565b5090565b5b80821115612158576000816000905550600101612140565b5090565b600061216f61216a846132ca565b613299565b90508281526020810184848401111561218757600080fd5b6121928482856134db565b509392505050565b6000813590506121a981613696565b92915050565b6000813590506121be816136ad565b92915050565b6000813590506121d3816136c4565b92915050565b6000815190506121e8816136c4565b92915050565b600082601f8301126121ff57600080fd5b813561220f84826020860161215c565b91505092915050565b600081359050612227816136db565b92915050565b60006020828403121561223f57600080fd5b600061224d8482850161219a565b91505092915050565b6000806040838503121561226957600080fd5b60006122778582860161219a565b92505060206122888582860161219a565b9150509250929050565b6000806000606084860312156122a757600080fd5b60006122b58682870161219a565b93505060206122c68682870161219a565b92505060406122d786828701612218565b9150509250925092565b600080600080608085870312156122f757600080fd5b60006123058782880161219a565b94505060206123168782880161219a565b935050604061232787828801612218565b925050606085013567ffffffffffffffff81111561234457600080fd5b612350878288016121ee565b91505092959194509250565b6000806040838503121561236f57600080fd5b600061237d8582860161219a565b925050602061238e858286016121af565b9150509250929050565b600080604083850312156123ab57600080fd5b60006123b98582860161219a565b92505060206123ca85828601612218565b9150509250929050565b6000602082840312156123e657600080fd5b60006123f4848285016121c4565b91505092915050565b60006020828403121561240f57600080fd5b600061241d848285016121d9565b91505092915050565b60006020828403121561243857600080fd5b600061244684828501612218565b91505092915050565b61245881613467565b82525050565b61246781613479565b82525050565b60006124788261330f565b6124828185613325565b93506124928185602086016134ea565b61249b81613685565b840191505092915050565b60006124b18261331a565b6124bb8185613336565b93506124cb8185602086016134ea565b6124d481613685565b840191505092915050565b60006124ea8261331a565b6124f48185613347565b93506125048185602086016134ea565b80840191505092915050565b6000815461251d8161351d565b6125278186613347565b94506001821660008114612542576001811461255357612586565b60ff19831686528186019350612586565b61255c856132fa565b60005b8381101561257e5781548189015260018201915060208101905061255f565b838801955050505b50505092915050565b600061259c603283613336565b91507f4552433732313a207472616e7366657220746f206e6f6e20455243373231526560008301527f63656976657220696d706c656d656e74657200000000000000000000000000006020830152604082019050919050565b6000612602601c83613336565b91507f4552433732313a20746f6b656e20616c7265616479206d696e746564000000006000830152602082019050919050565b6000612642602483613336565b91507f4552433732313a207472616e7366657220746f20746865207a65726f2061646460008301527f72657373000000000000000000000000000000000000000000000000000000006020830152604082019050919050565b60006126a8601983613336565b91507f4552433732313a20617070726f766520746f2063616c6c6572000000000000006000830152602082019050919050565b60006126e8606e83613347565b91507f222c20226465736372697074696f6e223a20224120686967686c79206163636c60008301527f61696d656420636f6c6c656374696f6e206f66207371756172657320616e642060208301527f70657272656f2e222c2022696d616765223a2022646174613a696d6167652f7360408301527f76672b786d6c3b6261736536342c0000000000000000000000000000000000006060830152606e82019050919050565b600061279a602c83613336565b91507f4552433732313a206f70657261746f7220717565727920666f72206e6f6e657860008301527f697374656e7420746f6b656e00000000000000000000000000000000000000006020830152604082019050919050565b6000612800600d83613347565b91507f3c2f746578743e3c2f7376673e000000000000000000000000000000000000006000830152600d82019050919050565b6000612840603883613336565b91507f4552433732313a20617070726f76652063616c6c6572206973206e6f74206f7760008301527f6e6572206e6f7220617070726f76656420666f7220616c6c00000000000000006020830152604082019050919050565b60006128a6602a83613336565b91507f4552433732313a2062616c616e636520717565727920666f7220746865207a6560008301527f726f2061646472657373000000000000000000000000000000000000000000006020830152604082019050919050565b600061290c602983613336565b91507f4552433732313a206f776e657220717565727920666f72206e6f6e657869737460008301527f656e7420746f6b656e00000000000000000000000000000000000000000000006020830152604082019050919050565b6000612972602e83613336565b91507f45524337323155524953746f726167653a2055524920736574206f66206e6f6e60008301527f6578697374656e7420746f6b656e0000000000000000000000000000000000006020830152604082019050919050565b60006129d8600283613347565b91507f227d0000000000000000000000000000000000000000000000000000000000006000830152600282019050919050565b6000612a18602083613336565b91507f4552433732313a206d696e7420746f20746865207a65726f20616464726573736000830152602082019050919050565b6000612a58603183613336565b91507f45524337323155524953746f726167653a2055524920717565727920666f722060008301527f6e6f6e6578697374656e7420746f6b656e0000000000000000000000000000006020830152604082019050919050565b6000612abe602c83613336565b91507f4552433732313a20617070726f76656420717565727920666f72206e6f6e657860008301527f697374656e7420746f6b656e00000000000000000000000000000000000000006020830152604082019050919050565b6000612b24602983613336565b91507f4552433732313a207472616e73666572206f6620746f6b656e2074686174206960008301527f73206e6f74206f776e00000000000000000000000000000000000000000000006020830152604082019050919050565b6000612b8a602f83613336565b91507f4552433732314d657461646174613a2055524920717565727920666f72206e6f60008301527f6e6578697374656e7420746f6b656e00000000000000000000000000000000006020830152604082019050919050565b6000612bf0600a83613347565b91507f7b226e616d65223a2022000000000000000000000000000000000000000000006000830152600a82019050919050565b6000612c30602183613336565b91507f4552433732313a20617070726f76616c20746f2063757272656e74206f776e6560008301527f72000000000000000000000000000000000000000000000000000000000000006020830152604082019050919050565b6000612c96600a83613347565b91507f46495253545f574f5244000000000000000000000000000000000000000000006000830152600a82019050919050565b6000612cd6601d83613347565b91507f646174613a6170706c69636174696f6e2f6a736f6e3b6261736536342c0000006000830152601d82019050919050565b6000612d16603183613336565b91507f4552433732313a207472616e736665722063616c6c6572206973206e6f74206f60008301527f776e6572206e6f7220617070726f7665640000000000000000000000000000006020830152604082019050919050565b6000612d7c602383613336565b91507f534f4c44204f55543a205468657265732061206d696e74206c696d6974206f6660008301527f20333000000000000000000000000000000000000000000000000000000000006020830152604082019050919050565b6000612de2600583613347565b91507f434f4c4f520000000000000000000000000000000000000000000000000000006000830152600582019050919050565b612e1e816134d1565b82525050565b6000612e3082846124df565b915081905092915050565b6000612e4782856124df565b9150612e5382846124df565b91508190509392505050565b6000612e6b8287612510565b9150612e7782866124df565b9150612e838285612510565b9150612e8f82846124df565b9150612e9a826127f3565b915081905095945050505050565b6000612eb382612be3565b9150612ebf82856124df565b9150612eca826126db565b9150612ed682846124df565b9150612ee1826129cb565b91508190509392505050565b6000612ef882612c89565b9150612f0482846124df565b915081905092915050565b6000612f1a82612cc9565b9150612f2682846124df565b915081905092915050565b6000612f3c82612dd5565b9150612f4882846124df565b915081905092915050565b6000602082019050612f68600083018461244f565b92915050565b6000608082019050612f83600083018761244f565b612f90602083018661244f565b612f9d6040830185612e15565b8181036060830152612faf818461246d565b905095945050505050565b6000604082019050612fcf600083018561244f565b612fdc6020830184612e15565b9392505050565b6000602082019050612ff8600083018461245e565b92915050565b6000602082019050818103600083015261301881846124a6565b905092915050565b6000606082019050818103600083015261303a81866124a6565b90506130496020830185612e15565b613056604083018461244f565b949350505050565b600060208201905081810360008301526130778161258f565b9050919050565b60006020820190508181036000830152613097816125f5565b9050919050565b600060208201905081810360008301526130b781612635565b9050919050565b600060208201905081810360008301526130d78161269b565b9050919050565b600060208201905081810360008301526130f78161278d565b9050919050565b6000602082019050818103600083015261311781612833565b9050919050565b6000602082019050818103600083015261313781612899565b9050919050565b60006020820190508181036000830152613157816128ff565b9050919050565b6000602082019050818103600083015261317781612965565b9050919050565b6000602082019050818103600083015261319781612a0b565b9050919050565b600060208201905081810360008301526131b781612a4b565b9050919050565b600060208201905081810360008301526131d781612ab1565b9050919050565b600060208201905081810360008301526131f781612b17565b9050919050565b6000602082019050818103600083015261321781612b7d565b9050919050565b6000602082019050818103600083015261323781612c23565b9050919050565b6000602082019050818103600083015261325781612d09565b9050919050565b6000602082019050818103600083015261327781612d6f565b9050919050565b60006020820190506132936000830184612e15565b92915050565b6000604051905081810181811067ffffffffffffffff821117156132c0576132bf613656565b5b8060405250919050565b600067ffffffffffffffff8211156132e5576132e4613656565b5b601f19601f8301169050602081019050919050565b60008190508160005260206000209050919050565b600081519050919050565b600081519050919050565b600082825260208201905092915050565b600082825260208201905092915050565b600081905092915050565b600061335d826134d1565b9150613368836134d1565b9250827fffffffffffffffffffffffffffffffffffffffffffffffffffffffffffffffff0382111561339d5761339c6135c9565b5b828201905092915050565b60006133b3826134d1565b91506133be836134d1565b9250826133ce576133cd6135f8565b5b828204905092915050565b60006133e4826134d1565b91506133ef836134d1565b9250817fffffffffffffffffffffffffffffffffffffffffffffffffffffffffffffffff0483118215151615613428576134276135c9565b5b828202905092915050565b600061343e826134d1565b9150613449836134d1565b92508282101561345c5761345b6135c9565b5b828203905092915050565b6000613472826134b1565b9050919050565b60008115159050919050565b60007fffffffff0000000000000000000000000000000000000000000000000000000082169050919050565b600073ffffffffffffffffffffffffffffffffffffffff82169050919050565b6000819050919050565b82818337600083830152505050565b60005b838110156135085780820151818401526020810190506134ed565b83811115613517576000848401525b50505050565b6000600282049050600182168061353557607f821691505b6020821081141561354957613548613627565b5b50919050565b600061355a826134d1565b91507fffffffffffffffffffffffffffffffffffffffffffffffffffffffffffffffff82141561358d5761358c6135c9565b5b600182019050919050565b60006135a3826134d1565b91506135ae836134d1565b9250826135be576135bd6135f8565b5b828206905092915050565b7f4e487b7100000000000000000000000000000000000000000000000000000000600052601160045260246000fd5b7f4e487b7100000000000000000000000000000000000000000000000000000000600052601260045260246000fd5b7f4e487b7100000000000000000000000000000000000000000000000000000000600052602260045260246000fd5b7f4e487b7100000000000000000000000000000000000000000000000000000000600052604160045260246000fd5b6000601f19601f8301169050919050565b61369f81613467565b81146136aa57600080fd5b50565b6136b681613479565b81146136c157600080fd5b50565b6136cd81613485565b81146136d857600080fd5b50565b6136e4816134d1565b81146136ef57600080fd5b5056fe416e204e465420772f20494420257320686173206265656e206d696e74656420746f2025734142434445464748494a4b4c4d4e4f505152535455565758595a6162636465666768696a6b6c6d6e6f707172737475767778797a303132333435363738392b2fa264697066735822122096fd837912c6dd9318a30a6d7de574278b62338dbf8fa7c931b111de68a1cea064736f6c634300080000333c73766720786d6c6e733d27687474703a2f2f7777772e77332e6f72672f323030302f73766727207072657365727665417370656374526174696f3d27784d696e594d696e206d656574272076696577426f783d273020302033353020333530273e3c7374796c653e2e62617365207b2066696c6c3a2077686974653b20666f6e742d66616d696c793a2073657269663b20666f6e742d73697a653a20323470783b207d3c2f7374796c653e3c726563742077696474683d273130302527206865696768743d2731303025272066696c6c3d27272f3e3c7465787420783d273530252720793d273530252720636c6173733d27626173652720646f6d696e616e742d626173656c696e653d276d6964646c652720746578742d616e63686f723d276d6964646c65273e",
  "linkReferences": {},
  "deployedLinkReferences": {}
}