{
  "_format": "hh-sol-artifact-1",
  "contractName": "MyEpicNFT",
  "sourceName": "contracts/MyEpicNFT.sol",
  "abi": [
    {
      "inputs": [],
      "stateMutability": "nonpayable",
      "type": "constructor"
    },
    {
      "anonymous": false,
      "inputs": [
        {
          "indexed": true,
          "internalType": "address",
          "name": "owner",
          "type": "address"
        },
        {
          "indexed": true,
          "internalType": "address",
          "name": "approved",
          "type": "address"
        },
        {
          "indexed": true,
          "internalType": "uint256",
          "name": "tokenId",
          "type": "uint256"
        }
      ],
      "name": "Approval",
      "type": "event"
    },
    {
      "anonymous": false,
      "inputs": [
        {
          "indexed": true,
          "internalType": "address",
          "name": "owner",
          "type": "address"
        },
        {
          "indexed": true,
          "internalType": "address",
          "name": "operator",
          "type": "address"
        },
        {
          "indexed": false,
          "internalType": "bool",
          "name": "approved",
          "type": "bool"
        }
      ],
      "name": "ApprovalForAll",
      "type": "event"
    },
    {
      "anonymous": false,
      "inputs": [
        {
          "indexed": false,
          "internalType": "address",
          "name": "sender",
          "type": "address"
        },
        {
          "indexed": false,
          "internalType": "uint256",
          "name": "tokenId",
          "type": "uint256"
        }
      ],
      "name": "NewEpicNFTMinted",
      "type": "event"
    },
    {
      "anonymous": false,
      "inputs": [
        {
          "indexed": true,
          "internalType": "address",
          "name": "from",
          "type": "address"
        },
        {
          "indexed": true,
          "internalType": "address",
          "name": "to",
          "type": "address"
        },
        {
          "indexed": true,
          "internalType": "uint256",
          "name": "tokenId",
          "type": "uint256"
        }
      ],
      "name": "Transfer",
      "type": "event"
    },
    {
      "inputs": [
        {
          "internalType": "address",
          "name": "to",
          "type": "address"
        },
        {
          "internalType": "uint256",
          "name": "tokenId",
          "type": "uint256"
        }
      ],
      "name": "approve",
      "outputs": [],
      "stateMutability": "nonpayable",
      "type": "function"
    },
    {
      "inputs": [
        {
          "internalType": "address",
          "name": "owner",
          "type": "address"
        }
      ],
      "name": "balanceOf",
      "outputs": [
        {
          "internalType": "uint256",
          "name": "",
          "type": "uint256"
        }
      ],
      "stateMutability": "view",
      "type": "function"
    },
    {
      "inputs": [
        {
          "internalType": "uint256",
          "name": "tokenId",
          "type": "uint256"
        }
      ],
      "name": "getApproved",
      "outputs": [
        {
          "internalType": "address",
          "name": "",
          "type": "address"
        }
      ],
      "stateMutability": "view",
      "type": "function"
    },
    {
      "inputs": [],
      "name": "getTotalNFTsMintedCount",
      "outputs": [
        {
          "internalType": "uint256",
          "name": "",
          "type": "uint256"
        }
      ],
      "stateMutability": "view",
      "type": "function"
    },
    {
      "inputs": [
        {
          "internalType": "address",
          "name": "owner",
          "type": "address"
        },
        {
          "internalType": "address",
          "name": "operator",
          "type": "address"
        }
      ],
      "name": "isApprovedForAll",
      "outputs": [
        {
          "internalType": "bool",
          "name": "",
          "type": "bool"
        }
      ],
      "stateMutability": "view",
      "type": "function"
    },
    {
      "inputs": [],
      "name": "makeAnEpicNFT",
      "outputs": [],
      "stateMutability": "nonpayable",
      "type": "function"
    },
    {
      "inputs": [],
      "name": "name",
      "outputs": [
        {
          "internalType": "string",
          "name": "",
          "type": "string"
        }
      ],
      "stateMutability": "view",
      "type": "function"
    },
    {
      "inputs": [
        {
          "internalType": "uint256",
          "name": "tokenId",
          "type": "uint256"
        }
      ],
      "name": "ownerOf",
      "outputs": [
        {
          "internalType": "address",
          "name": "",
          "type": "address"
        }
      ],
      "stateMutability": "view",
      "type": "function"
    },
    {
      "inputs": [
        {
          "internalType": "uint256",
          "name": "tokenId",
          "type": "uint256"
        }
      ],
      "name": "pickRandomColor",
      "outputs": [
        {
          "internalType": "string",
          "name": "",
          "type": "string"
        }
      ],
      "stateMutability": "view",
      "type": "function"
    },
    {
      "inputs": [
        {
          "internalType": "uint256",
          "name": "tokenId",
          "type": "uint256"
        }
      ],
      "name": "pickRandomFirstWord",
      "outputs": [
        {
          "internalType": "string",
          "name": "",
          "type": "string"
        }
      ],
      "stateMutability": "view",
      "type": "function"
    },
    {
      "inputs": [
        {
          "internalType": "uint256",
          "name": "tokenId",
          "type": "uint256"
        }
      ],
      "name": "pickRandomSecondWord",
      "outputs": [
        {
          "internalType": "string",
          "name": "",
          "type": "string"
        }
      ],
      "stateMutability": "view",
      "type": "function"
    },
    {
      "inputs": [
        {
          "internalType": "uint256",
          "name": "tokenId",
          "type": "uint256"
        }
      ],
      "name": "pickRandomThirdWord",
      "outputs": [
        {
          "internalType": "string",
          "name": "",
          "type": "string"
        }
      ],
      "stateMutability": "view",
      "type": "function"
    },
    {
      "inputs": [
        {
          "internalType": "address",
          "name": "from",
          "type": "address"
        },
        {
          "internalType": "address",
          "name": "to",
          "type": "address"
        },
        {
          "internalType": "uint256",
          "name": "tokenId",
          "type": "uint256"
        }
      ],
      "name": "safeTransferFrom",
      "outputs": [],
      "stateMutability": "nonpayable",
      "type": "function"
    },
    {
      "inputs": [
        {
          "internalType": "address",
          "name": "from",
          "type": "address"
        },
        {
          "internalType": "address",
          "name": "to",
          "type": "address"
        },
        {
          "internalType": "uint256",
          "name": "tokenId",
          "type": "uint256"
        },
        {
          "internalType": "bytes",
          "name": "_data",
          "type": "bytes"
        }
      ],
      "name": "safeTransferFrom",
      "outputs": [],
      "stateMutability": "nonpayable",
      "type": "function"
    },
    {
      "inputs": [
        {
          "internalType": "address",
          "name": "operator",
          "type": "address"
        },
        {
          "internalType": "bool",
          "name": "approved",
          "type": "bool"
        }
      ],
      "name": "setApprovalForAll",
      "outputs": [],
      "stateMutability": "nonpayable",
      "type": "function"
    },
    {
      "inputs": [
        {
          "internalType": "bytes4",
          "name": "interfaceId",
          "type": "bytes4"
        }
      ],
      "name": "supportsInterface",
      "outputs": [
        {
          "internalType": "bool",
          "name": "",
          "type": "bool"
        }
      ],
      "stateMutability": "view",
      "type": "function"
    },
    {
      "inputs": [],
      "name": "symbol",
      "outputs": [
        {
          "internalType": "string",
          "name": "",
          "type": "string"
        }
      ],
      "stateMutability": "view",
      "type": "function"
    },
    {
      "inputs": [
        {
          "internalType": "uint256",
          "name": "tokenId",
          "type": "uint256"
        }
      ],
      "name": "tokenURI",
      "outputs": [
        {
          "internalType": "string",
          "name": "",
          "type": "string"
        }
      ],
      "stateMutability": "view",
      "type": "function"
    },
    {
      "inputs": [
        {
          "internalType": "address",
          "name": "from",
          "type": "address"
        },
        {
          "internalType": "address",
          "name": "to",
          "type": "address"
        },
        {
          "internalType": "uint256",
          "name": "tokenId",
          "type": "uint256"
        }
      ],
      "name": "transferFrom",
      "outputs": [],
      "stateMutability": "nonpayable",
      "type": "function"
    }
  ],
  "bytecode": "0x6080604052603260085560405180610100016040528060d381526020016200581760d39139600990805190602001906200003b929190620018cc565b50604051806080016040528060568152602001620058ea60569139600a90805190602001906200006d929190620018cc565b506040518061034001604052806040518060400160405280600a81526020017f416767726573736976650000000000000000000000000000000000000000000081525081526020016040518060400160405280600581526020017f427261766500000000000000000000000000000000000000000000000000000081525081526020016040518060400160405280600881526020017f436865657266756c00000000000000000000000000000000000000000000000081525081526020016040518060400160405280600a81526020017f44656c6967687466756c0000000000000000000000000000000000000000000081525081526020016040518060400160405280600481526020017f4461726b0000000000000000000000000000000000000000000000000000000081525081526020016040518060400160405280600b81526020017f456e636f75726167696e6700000000000000000000000000000000000000000081525081526020016040518060400160405280600781526020017f4672616e7469630000000000000000000000000000000000000000000000000081525081526020016040518060400160405280600981526020017f47726f746573717565000000000000000000000000000000000000000000000081525081526020016040518060400160405280600881526020017f486f727269626c6500000000000000000000000000000000000000000000000081525081526020016040518060400160405280600581526020017f497463687900000000000000000000000000000000000000000000000000000081525081526020016040518060400160405280600681526020017f4c6976656c79000000000000000000000000000000000000000000000000000081525081526020016040518060400160405280600a81526020017f4d7973746572696f75730000000000000000000000000000000000000000000081525081526020016040518060400160405280600781526020017f4e6572766f75730000000000000000000000000000000000000000000000000081525081526020016040518060400160405280600881526020017f4f62656469656e7400000000000000000000000000000000000000000000000081525081526020016040518060400160405280600981526020017f4f626e6f78696f7573000000000000000000000000000000000000000000000081525081526020016040518060400160405280600881526020017f506c656173616e7400000000000000000000000000000000000000000000000081525081526020016040518060400160405280600681526020017f517561696e74000000000000000000000000000000000000000000000000000081525081526020016040518060400160405280600981526020017f526570756c73697665000000000000000000000000000000000000000000000081525081526020016040518060400160405280600381526020017f536879000000000000000000000000000000000000000000000000000000000081525081526020016040518060400160405280600581526020017f53696c6c7900000000000000000000000000000000000000000000000000000081525081526020016040518060400160405280600881526020017f53706c656e64696400000000000000000000000000000000000000000000000081525081526020016040518060400160405280600681526020017f54656e646572000000000000000000000000000000000000000000000000000081525081526020016040518060400160405280600781526020017f556e757375616c0000000000000000000000000000000000000000000000000081525081526020016040518060400160405280600781526020017f557074696768740000000000000000000000000000000000000000000000000081525081526020016040518060400160405280600981526020017f57616e646572696e67000000000000000000000000000000000000000000000081525081526020016040518060400160405280600481526020017f5a616e7900000000000000000000000000000000000000000000000000000000815250815250600b90601a620006889291906200195d565b506040518061038001604052806040518060400160405280600981526020017f41736877696e646572000000000000000000000000000000000000000000000081525081526020016040518060400160405280600a81526020017f426f77747275636b6c650000000000000000000000000000000000000000000081525081526020016040518060400160405280600781526020017f43616e746175720000000000000000000000000000000000000000000000000081525081526020016040518060400160405280600881526020017f4368696d6165726100000000000000000000000000000000000000000000000081525081526020016040518060400160405280600981526020017f44656d696775697365000000000000000000000000000000000000000000000081525081526020016040518060400160405280600681526020017f447261676f6e000000000000000000000000000000000000000000000000000081525081526020016040518060400160405280600881526020017f4572756d70656e7400000000000000000000000000000000000000000000000081525081526020016040518060400160405280600581526020017f466169727900000000000000000000000000000000000000000000000000000081525081526020016040518060400160405280600981526020017f466972656472616b65000000000000000000000000000000000000000000000081525081526020016040518060400160405280600781526020017f46776f6f7065720000000000000000000000000000000000000000000000000081525081526020016040518060400160405280600581526020017f47686f756c00000000000000000000000000000000000000000000000000000081525081526020016040518060400160405280600581526020017f476e6f6d6500000000000000000000000000000000000000000000000000000081525081526020016040518060400160405280600781526020017f4772696666696e0000000000000000000000000000000000000000000000000081525081526020016040518060400160405280600a81526020017f486970706f67726966660000000000000000000000000000000000000000000081525081526020016040518060400160405280600381526020017f496d70000000000000000000000000000000000000000000000000000000000081525081526020016040518060400160405280600981526020017f4a61636b616c6f7065000000000000000000000000000000000000000000000081525081526020016040518060400160405280600981526020017f4d616e7469636f7265000000000000000000000000000000000000000000000081525081526020016040518060400160405280600781526020017f4e6966666c65720000000000000000000000000000000000000000000000000081525081526020016040518060400160405280600781526020017f50686f656e69780000000000000000000000000000000000000000000000000081525081526020016040518060400160405280600581526020017f506978696500000000000000000000000000000000000000000000000000000081525081526020016040518060400160405280600a81526020017f53616c616d616e6465720000000000000000000000000000000000000000000081525081526020016040518060400160405280600581526020017f536e61696c00000000000000000000000000000000000000000000000000000081525081526020016040518060400160405280600681526020017f537069646572000000000000000000000000000000000000000000000000000081525081526020016040518060400160405280600481526020017f546f61640000000000000000000000000000000000000000000000000000000081525081526020016040518060400160405280600581526020017f54726f6c6c00000000000000000000000000000000000000000000000000000081525081526020016040518060400160405280600781526020017f556e69636f726e0000000000000000000000000000000000000000000000000081525081526020016040518060400160405280600881526020017f57657265776f6c6600000000000000000000000000000000000000000000000081525081526020016040518060400160405280600481526020017f5965746900000000000000000000000000000000000000000000000000000000815250815250600c90601c62000d19929190620019c4565b506040518061048001604052806040518060400160405280600381526020017f456172000000000000000000000000000000000000000000000000000000000081525081526020016040518060400160405280600481526020017f46616e670000000000000000000000000000000000000000000000000000000081525081526020016040518060400160405280600581526020017f546f6f746800000000000000000000000000000000000000000000000000000081525081526020016040518060400160405280600581526020017f50616e747300000000000000000000000000000000000000000000000000000081525081526020016040518060400160405280600581526020017f536869727400000000000000000000000000000000000000000000000000000081525081526020016040518060400160405280600781526020017f476c61737365730000000000000000000000000000000000000000000000000081525081526020016040518060400160405280600581526020017f476c6f766500000000000000000000000000000000000000000000000000000081525081526020016040518060400160405280600481526020017f546f65730000000000000000000000000000000000000000000000000000000081525081526020016040518060400160405280600381526020017f457965000000000000000000000000000000000000000000000000000000000081525081526020016040518060400160405280600581526020017f466c65736800000000000000000000000000000000000000000000000000000081525081526020016040518060400160405280600381526020017f456767000000000000000000000000000000000000000000000000000000000081525081526020016040518060400160405280600681526020017f546f6e677565000000000000000000000000000000000000000000000000000081525081526020016040518060400160405280600481526020017f4b6e65650000000000000000000000000000000000000000000000000000000081525081526020016040518060400160405280600581526020017f456c626f7700000000000000000000000000000000000000000000000000000081525081526020016040518060400160405280600481526020017f486169720000000000000000000000000000000000000000000000000000000081525081526020016040518060400160405280600781526020017f466561746865720000000000000000000000000000000000000000000000000081525081526020016040518060400160405280600681526020017f5363616c6573000000000000000000000000000000000000000000000000000081525081526020016040518060400160405280600481526020017f5461696c0000000000000000000000000000000000000000000000000000000081525081526020016040518060400160405280600581526020017f486561727400000000000000000000000000000000000000000000000000000081525081526020016040518060400160405280600481526020017f536f756c0000000000000000000000000000000000000000000000000000000081525081526020016040518060400160405280600781526020017f45796562726f770000000000000000000000000000000000000000000000000081525081526020016040518060400160405280600481526020017f53686f650000000000000000000000000000000000000000000000000000000081525081526020016040518060400160405280600581526020017f57696e677300000000000000000000000000000000000000000000000000000081525081526020016040518060400160405280600481526020017f436c75620000000000000000000000000000000000000000000000000000000081525081526020016040518060400160405280600581526020017f53776f726400000000000000000000000000000000000000000000000000000081525081526020016040518060400160405280600681526020017f446167676572000000000000000000000000000000000000000000000000000081525081526020016040518060400160405280600881526020017f436861696e73617700000000000000000000000000000000000000000000000081525081526020016040518060400160405280600481526020017f486f726e0000000000000000000000000000000000000000000000000000000081525081526020016040518060400160405280600781526020017f426c75626265720000000000000000000000000000000000000000000000000081525081526020016040518060400160405280600481526020017f536b696e0000000000000000000000000000000000000000000000000000000081525081526020016040518060400160405280600381526020017f467572000000000000000000000000000000000000000000000000000000000081525081526020016040518060400160405280600581526020017f546f61737400000000000000000000000000000000000000000000000000000081525081526020016040518060400160405280600681526020017f427572676572000000000000000000000000000000000000000000000000000081525081526020016040518060400160405280600581526020017f537465616b00000000000000000000000000000000000000000000000000000081525081526020016040518060400160405280600581526020017f4c6976657200000000000000000000000000000000000000000000000000000081525081526020016040518060400160405280600681526020017f4b69646e65790000000000000000000000000000000000000000000000000000815250815250600d9060246200158292919062001a2b565b506040518060c001604052806040518060400160405280600381526020017f726564000000000000000000000000000000000000000000000000000000000081525081526020016040518060400160405280600781526020017f233038433241380000000000000000000000000000000000000000000000000081525081526020016040518060400160405280600581526020017f626c61636b00000000000000000000000000000000000000000000000000000081525081526020016040518060400160405280600681526020017f79656c6c6f77000000000000000000000000000000000000000000000000000081525081526020016040518060400160405280600481526020017f626c75650000000000000000000000000000000000000000000000000000000081525081526020016040518060400160405280600581526020017f677265656e000000000000000000000000000000000000000000000000000000815250815250600e9060066200170092919062001a92565b503480156200170e57600080fd5b506040518060400160405280600981526020017f5371756172654e465400000000000000000000000000000000000000000000008152506040518060400160405280600681526020017f5351554152450000000000000000000000000000000000000000000000000000815250816000908051906020019062001793929190620018cc565b508060019080519060200190620017ac929190620018cc565b505050620017fa6040518060400160405280601e81526020017f54686973206973206d79204e465420636f6e74726163742e20576f61682100008152506200180060201b620014131760201c565b62001cb3565b620018a08160405160240162001817919062001bc7565b6040516020818303038152906040527f41304fac000000000000000000000000000000000000000000000000000000007bffffffffffffffffffffffffffffffffffffffffffffffffffffffff19166020820180517bffffffffffffffffffffffffffffffffffffffffffffffffffffffff8381831617835250505050620018a360201b60201c565b50565b60008151905060006a636f6e736f6c652e6c6f679050602083016000808483855afa5050505050565b828054620018da9062001c3d565b90600052602060002090601f016020900481019282620018fe57600085556200194a565b82601f106200191957805160ff19168380011785556200194a565b828001600101855582156200194a579182015b82811115620019495782518255916020019190600101906200192c565b5b50905062001959919062001af9565b5090565b828054828255906000526020600020908101928215620019b1579160200282015b82811115620019b05782518290805190602001906200199f929190620018cc565b50916020019190600101906200197e565b5b509050620019c0919062001b18565b5090565b82805482825590600052602060002090810192821562001a18579160200282015b8281111562001a1757825182908051906020019062001a06929190620018cc565b5091602001919060010190620019e5565b5b50905062001a27919062001b18565b5090565b82805482825590600052602060002090810192821562001a7f579160200282015b8281111562001a7e57825182908051906020019062001a6d929190620018cc565b509160200191906001019062001a4c565b5b50905062001a8e919062001b18565b5090565b82805482825590600052602060002090810192821562001ae6579160200282015b8281111562001ae557825182908051906020019062001ad4929190620018cc565b509160200191906001019062001ab3565b5b50905062001af5919062001b18565b5090565b5b8082111562001b1457600081600090555060010162001afa565b5090565b5b8082111562001b3c576000818162001b32919062001b40565b5060010162001b19565b5090565b50805462001b4e9062001c3d565b6000825580601f1062001b62575062001b83565b601f01602090049060005260206000209081019062001b82919062001af9565b5b50565b600062001b938262001beb565b62001b9f818562001bf6565b935062001bb181856020860162001c07565b62001bbc8162001ca2565b840191505092915050565b6000602082019050818103600083015262001be3818462001b86565b905092915050565b600081519050919050565b600082825260208201905092915050565b60005b8381101562001c2757808201518184015260208101905062001c0a565b8381111562001c37576000848401525b50505050565b6000600282049050600182168062001c5657607f821691505b6020821081141562001c6d5762001c6c62001c73565b5b50919050565b7f4e487b7100000000000000000000000000000000000000000000000000000000600052602260045260246000fd5b6000601f19601f8301169050919050565b613b548062001cc36000396000f3fe608060405234801561001057600080fd5b50600436106101215760003560e01c806370a08231116100ad578063b88d4fde11610071578063b88d4fde14610340578063c575757a1461035c578063c87b56dd1461038c578063de9d132f146103bc578063e985e9c5146103c657610121565b806370a082311461028857806395d89b41146102b8578063a22cb465146102d6578063aaae0a08146102f2578063b187301f1461031057610121565b806323b872dd116100f457806323b872dd146101c05780632de38d68146101dc57806342842e0e1461020c578063514dc8c6146102285780636352211e1461025857610121565b806301ffc9a71461012657806306fdde0314610156578063081812fc14610174578063095ea7b3146101a4575b600080fd5b610140600480360381019061013b91906126a6565b6103f6565b60405161014d91906133aa565b60405180910390f35b61015e6104d8565b60405161016b91906133c5565b60405180910390f35b61018e600480360381019061018991906126f8565b61056a565b60405161019b919061331a565b60405180910390f35b6101be60048036038101906101b9919061266a565b6105ef565b005b6101da60048036038101906101d59190612564565b610707565b005b6101f660048036038101906101f191906126f8565b610767565b60405161020391906133c5565b60405180910390f35b61022660048036038101906102219190612564565b610885565b005b610242600480360381019061023d91906126f8565b6108a5565b60405161024f91906133c5565b60405180910390f35b610272600480360381019061026d91906126f8565b6109c3565b60405161027f919061331a565b60405180910390f35b6102a2600480360381019061029d91906124ff565b610a75565b6040516102af9190613645565b60405180910390f35b6102c0610b2d565b6040516102cd91906133c5565b60405180910390f35b6102f060048036038101906102eb919061262e565b610bbf565b005b6102fa610d40565b6040516103079190613645565b60405180910390f35b61032a600480360381019061032591906126f8565b610d51565b60405161033791906133c5565b60405180910390f35b61035a600480360381019061035591906125b3565b610e6f565b005b610376600480360381019061037191906126f8565b610ed1565b60405161038391906133c5565b60405180910390f35b6103a660048036038101906103a191906126f8565b610fef565b6040516103b391906133c5565b60405180910390f35b6103c4611141565b005b6103e060048036038101906103db9190612528565b61137f565b6040516103ed91906133aa565b60405180910390f35b60007f80ac58cd000000000000000000000000000000000000000000000000000000007bffffffffffffffffffffffffffffffffffffffffffffffffffffffff1916827bffffffffffffffffffffffffffffffffffffffffffffffffffffffff191614806104c157507f5b5e139f000000000000000000000000000000000000000000000000000000007bffffffffffffffffffffffffffffffffffffffffffffffffffffffff1916827bffffffffffffffffffffffffffffffffffffffffffffffffffffffff1916145b806104d157506104d0826114ac565b5b9050919050565b6060600080546104e7906138e4565b80601f0160208091040260200160405190810160405280929190818152602001828054610513906138e4565b80156105605780601f1061053557610100808354040283529160200191610560565b820191906000526020600020905b81548152906001019060200180831161054357829003601f168201915b5050505050905090565b600061057582611516565b6105b4576040517f08c379a00000000000000000000000000000000000000000000000000000000081526004016105ab906135a5565b60405180910390fd5b6004600083815260200190815260200160002060009054906101000a900473ffffffffffffffffffffffffffffffffffffffff169050919050565b60006105fa826109c3565b90508073ffffffffffffffffffffffffffffffffffffffff168373ffffffffffffffffffffffffffffffffffffffff16141561066b576040517f08c379a000000000000000000000000000000000000000000000000000000000815260040161066290613605565b60405180910390fd5b8073ffffffffffffffffffffffffffffffffffffffff1661068a611582565b73ffffffffffffffffffffffffffffffffffffffff1614806106b957506106b8816106b3611582565b61137f565b5b6106f8576040517f08c379a00000000000000000000000000000000000000000000000000000000081526004016106ef906134e5565b60405180910390fd5b610702838361158a565b505050565b610718610712611582565b82611643565b610757576040517f08c379a000000000000000000000000000000000000000000000000000000000815260040161074e90613625565b60405180910390fd5b610762838383611721565b505050565b6060600061079b6107778461197d565b60405160200161078791906132b4565b604051602081830303815290604052611b2a565b9050600b80549050816107ae919061395f565b9050600b81815481106107ea577f4e487b7100000000000000000000000000000000000000000000000000000000600052603260045260246000fd5b9060005260206000200180546107ff906138e4565b80601f016020809104026020016040519081016040528092919081815260200182805461082b906138e4565b80156108785780601f1061084d57610100808354040283529160200191610878565b820191906000526020600020905b81548152906001019060200180831161085b57829003601f168201915b5050505050915050919050565b6108a083838360405180602001604052806000815250610e6f565b505050565b606060006108d96108b58461197d565b6040516020016108c591906132f8565b604051602081830303815290604052611b2a565b9050600e80549050816108ec919061395f565b9050600e8181548110610928577f4e487b7100000000000000000000000000000000000000000000000000000000600052603260045260246000fd5b90600052602060002001805461093d906138e4565b80601f0160208091040260200160405190810160405280929190818152602001828054610969906138e4565b80156109b65780601f1061098b576101008083540402835291602001916109b6565b820191906000526020600020905b81548152906001019060200180831161099957829003601f168201915b5050505050915050919050565b6000806002600084815260200190815260200160002060009054906101000a900473ffffffffffffffffffffffffffffffffffffffff169050600073ffffffffffffffffffffffffffffffffffffffff168173ffffffffffffffffffffffffffffffffffffffff161415610a6c576040517f08c379a0000000000000000000000000000000000000000000000000000000008152600401610a6390613525565b60405180910390fd5b80915050919050565b60008073ffffffffffffffffffffffffffffffffffffffff168273ffffffffffffffffffffffffffffffffffffffff161415610ae6576040517f08c379a0000000000000000000000000000000000000000000000000000000008152600401610add90613505565b60405180910390fd5b600360008373ffffffffffffffffffffffffffffffffffffffff1673ffffffffffffffffffffffffffffffffffffffff168152602001908152602001600020549050919050565b606060018054610b3c906138e4565b80601f0160208091040260200160405190810160405280929190818152602001828054610b68906138e4565b8015610bb55780601f10610b8a57610100808354040283529160200191610bb5565b820191906000526020600020905b815481529060010190602001808311610b9857829003601f168201915b5050505050905090565b610bc7611582565b73ffffffffffffffffffffffffffffffffffffffff168273ffffffffffffffffffffffffffffffffffffffff161415610c35576040517f08c379a0000000000000000000000000000000000000000000000000000000008152600401610c2c90613485565b60405180910390fd5b8060056000610c42611582565b73ffffffffffffffffffffffffffffffffffffffff1673ffffffffffffffffffffffffffffffffffffffff16815260200190815260200160002060008473ffffffffffffffffffffffffffffffffffffffff1673ffffffffffffffffffffffffffffffffffffffff16815260200190815260200160002060006101000a81548160ff0219169083151502179055508173ffffffffffffffffffffffffffffffffffffffff16610cef611582565b73ffffffffffffffffffffffffffffffffffffffff167f17307eab39ab6107e8899845ad3d59bd9653f200f220920489ca2b5937696c3183604051610d3491906133aa565b60405180910390a35050565b6000610d4c6007611b5d565b905090565b60606000610d85610d618461197d565b604051602001610d71919061324d565b604051602081830303815290604052611b2a565b9050600c8054905081610d98919061395f565b9050600c8181548110610dd4577f4e487b7100000000000000000000000000000000000000000000000000000000600052603260045260246000fd5b906000526020600020018054610de9906138e4565b80601f0160208091040260200160405190810160405280929190818152602001828054610e15906138e4565b8015610e625780601f10610e3757610100808354040283529160200191610e62565b820191906000526020600020905b815481529060010190602001808311610e4557829003601f168201915b5050505050915050919050565b610e80610e7a611582565b83611643565b610ebf576040517f08c379a0000000000000000000000000000000000000000000000000000000008152600401610eb690613625565b60405180910390fd5b610ecb84848484611b6b565b50505050565b60606000610f05610ee18461197d565b604051602001610ef1919061322b565b604051602081830303815290604052611b2a565b9050600d8054905081610f18919061395f565b9050600d8181548110610f54577f4e487b7100000000000000000000000000000000000000000000000000000000600052603260045260246000fd5b906000526020600020018054610f69906138e4565b80601f0160208091040260200160405190810160405280929190818152602001828054610f95906138e4565b8015610fe25780601f10610fb757610100808354040283529160200191610fe2565b820191906000526020600020905b815481529060010190602001808311610fc557829003601f168201915b5050505050915050919050565b6060610ffa82611516565b611039576040517f08c379a000000000000000000000000000000000000000000000000000000000815260040161103090613585565b60405180910390fd5b6000600660008481526020019081526020016000208054611059906138e4565b80601f0160208091040260200160405190810160405280929190818152602001828054611085906138e4565b80156110d25780601f106110a7576101008083540402835291602001916110d2565b820191906000526020600020905b8154815290600101906020018083116110b557829003601f168201915b5050505050905060006110e3611bc7565b90506000815114156110f957819250505061113c565b60008251111561112e57808260405160200161111692919061318d565b6040516020818303038152906040529250505061113c565b61113784611bde565b925050505b919050565b600061114d6007611b5d565b90508060085411611193576040517f08c379a000000000000000000000000000000000000000000000000000000000815260040161118a906134a5565b60405180910390fd5b600061119e82610767565b905060006111ab83610d51565b905060006111b884610ed1565b905060008383836040516020016111d1939291906131b1565b604051602081830303815290604052905060006111ed866108a5565b90506000600982600a8560405160200161120a94939291906131e2565b6040516020818303038152906040529050600061124f8461122a84611c85565b60405160200161123b92919061326f565b604051602081830303815290604052611c85565b905060008160405160200161126491906132d6565b60405160208183030381529060405290506112b36040518060400160405280601581526020017f0a2d2d2d2d2d2d2d2d2d2d2d2d2d2d2d2d2d2d2d2d0000000000000000000000815250611413565b6112bc81611413565b6112fa6040518060400160405280601581526020017f2d2d2d2d2d2d2d2d2d2d2d2d2d2d2d2d2d2d2d2d0a0000000000000000000000815250611413565b611304338a611e43565b61130e8982611e61565b6113186007611ed5565b61133b604051806060016040528060258152602001613aba602591398a33611eeb565b7febb98688741ffa4c7589bf325de30cf7becb63de567842e1ccdb6cb949fdc82c338a60405161136c929190613381565b60405180910390a1505050505050505050565b6000600560008473ffffffffffffffffffffffffffffffffffffffff1673ffffffffffffffffffffffffffffffffffffffff16815260200190815260200160002060008373ffffffffffffffffffffffffffffffffffffffff1673ffffffffffffffffffffffffffffffffffffffff16815260200190815260200160002060009054906101000a900460ff16905092915050565b6114a98160405160240161142791906133c5565b6040516020818303038152906040527f41304fac000000000000000000000000000000000000000000000000000000007bffffffffffffffffffffffffffffffffffffffffffffffffffffffff19166020820180517bffffffffffffffffffffffffffffffffffffffffffffffffffffffff8381831617835250505050611f8a565b50565b60007f01ffc9a7000000000000000000000000000000000000000000000000000000007bffffffffffffffffffffffffffffffffffffffffffffffffffffffff1916827bffffffffffffffffffffffffffffffffffffffffffffffffffffffff1916149050919050565b60008073ffffffffffffffffffffffffffffffffffffffff166002600084815260200190815260200160002060009054906101000a900473ffffffffffffffffffffffffffffffffffffffff1673ffffffffffffffffffffffffffffffffffffffff1614159050919050565b600033905090565b816004600083815260200190815260200160002060006101000a81548173ffffffffffffffffffffffffffffffffffffffff021916908373ffffffffffffffffffffffffffffffffffffffff160217905550808273ffffffffffffffffffffffffffffffffffffffff166115fd836109c3565b73ffffffffffffffffffffffffffffffffffffffff167f8c5be1e5ebec7d5bd14f71427d1e84f3dd0314c0f7b2291e5b200ac8c7c3b92560405160405180910390a45050565b600061164e82611516565b61168d576040517f08c379a0000000000000000000000000000000000000000000000000000000008152600401611684906134c5565b60405180910390fd5b6000611698836109c3565b90508073ffffffffffffffffffffffffffffffffffffffff168473ffffffffffffffffffffffffffffffffffffffff16148061170757508373ffffffffffffffffffffffffffffffffffffffff166116ef8461056a565b73ffffffffffffffffffffffffffffffffffffffff16145b806117185750611717818561137f565b5b91505092915050565b8273ffffffffffffffffffffffffffffffffffffffff16611741826109c3565b73ffffffffffffffffffffffffffffffffffffffff1614611797576040517f08c379a000000000000000000000000000000000000000000000000000000000815260040161178e906135c5565b60405180910390fd5b600073ffffffffffffffffffffffffffffffffffffffff168273ffffffffffffffffffffffffffffffffffffffff161415611807576040517f08c379a00000000000000000000000000000000000000000000000000000000081526004016117fe90613465565b60405180910390fd5b611812838383611fb3565b61181d60008261158a565b6001600360008573ffffffffffffffffffffffffffffffffffffffff1673ffffffffffffffffffffffffffffffffffffffff168152602001908152602001600020600082825461186d91906137fa565b925050819055506001600360008473ffffffffffffffffffffffffffffffffffffffff1673ffffffffffffffffffffffffffffffffffffffff16815260200190815260200160002060008282546118c49190613719565b92505081905550816002600083815260200190815260200160002060006101000a81548173ffffffffffffffffffffffffffffffffffffffff021916908373ffffffffffffffffffffffffffffffffffffffff160217905550808273ffffffffffffffffffffffffffffffffffffffff168473ffffffffffffffffffffffffffffffffffffffff167fddf252ad1be2c89b69c2b068fc378daa952ba7f163c4a11628f55a4df523b3ef60405160405180910390a4505050565b606060008214156119c5576040518060400160405280600181526020017f30000000000000000000000000000000000000000000000000000000000000008152509050611b25565b600082905060005b600082146119f75780806119e090613916565b915050600a826119f0919061376f565b91506119cd565b60008167ffffffffffffffff811115611a39577f4e487b7100000000000000000000000000000000000000000000000000000000600052604160045260246000fd5b6040519080825280601f01601f191660200182016040528015611a6b5781602001600182028036833780820191505090505b5090505b60008514611b1e57600182611a8491906137fa565b9150600a85611a93919061395f565b6030611a9f9190613719565b60f81b818381518110611adb577f4e487b7100000000000000000000000000000000000000000000000000000000600052603260045260246000fd5b60200101907effffffffffffffffffffffffffffffffffffffffffffffffffffffffffffff1916908160001a905350600a85611b17919061376f565b9450611a6f565b8093505050505b919050565b600081604051602001611b3d9190613176565b6040516020818303038152906040528051906020012060001c9050919050565b600081600001549050919050565b611b76848484611721565b611b8284848484611fb8565b611bc1576040517f08c379a0000000000000000000000000000000000000000000000000000000008152600401611bb890613425565b60405180910390fd5b50505050565b606060405180602001604052806000815250905090565b6060611be982611516565b611c28576040517f08c379a0000000000000000000000000000000000000000000000000000000008152600401611c1f906135e5565b60405180910390fd5b6000611c32611bc7565b90506000815111611c525760405180602001604052806000815250611c7d565b80611c5c8461197d565b604051602001611c6d92919061318d565b6040516020818303038152906040525b915050919050565b60606000825190506000811415611cae5760405180602001604052806000815250915050611e3e565b60006003600283611cbf9190613719565b611cc9919061376f565b6004611cd591906137a0565b90506000602082611ce69190613719565b67ffffffffffffffff811115611d25577f4e487b7100000000000000000000000000000000000000000000000000000000600052604160045260246000fd5b6040519080825280601f01601f191660200182016040528015611d575781602001600182028036833780820191505090505b5090506000604051806060016040528060408152602001613adf604091399050600181016020830160005b86811015611dfb5760038101905062ffffff818a015116603f8160121c168401518060081b905060ff603f83600c1c1686015116810190508060081b905060ff603f8360061c1686015116810190508060081b905060ff603f831686015116810190508060e01b90508084526004840193505050611d82565b506003860660018114611e155760028114611e2557611e30565b613d3d60f01b6002830352611e30565b603d60f81b60018303525b508484525050819450505050505b919050565b611e5d82826040518060200160405280600081525061214f565b5050565b611e6a82611516565b611ea9576040517f08c379a0000000000000000000000000000000000000000000000000000000008152600401611ea090613545565b60405180910390fd5b80600660008481526020019081526020016000209080519060200190611ed092919061238b565b505050565b6001816000016000828254019250508190555050565b611f85838383604051602401611f03939291906133e7565b6040516020818303038152906040527fe3849f79000000000000000000000000000000000000000000000000000000007bffffffffffffffffffffffffffffffffffffffffffffffffffffffff19166020820180517bffffffffffffffffffffffffffffffffffffffffffffffffffffffff8381831617835250505050611f8a565b505050565b60008151905060006a636f6e736f6c652e6c6f679050602083016000808483855afa5050505050565b505050565b6000611fd98473ffffffffffffffffffffffffffffffffffffffff166121aa565b15612142578373ffffffffffffffffffffffffffffffffffffffff1663150b7a02612002611582565b8786866040518563ffffffff1660e01b81526004016120249493929190613335565b602060405180830381600087803b15801561203e57600080fd5b505af192505050801561206f57506040513d601f19601f8201168201806040525081019061206c91906126cf565b60015b6120f2573d806000811461209f576040519150601f19603f3d011682016040523d82523d6000602084013e6120a4565b606091505b506000815114156120ea576040517f08c379a00000000000000000000000000000000000000000000000000000000081526004016120e190613425565b60405180910390fd5b805181602001fd5b63150b7a0260e01b7bffffffffffffffffffffffffffffffffffffffffffffffffffffffff1916817bffffffffffffffffffffffffffffffffffffffffffffffffffffffff191614915050612147565b600190505b949350505050565b61215983836121bd565b6121666000848484611fb8565b6121a5576040517f08c379a000000000000000000000000000000000000000000000000000000000815260040161219c90613425565b60405180910390fd5b505050565b600080823b905060008111915050919050565b600073ffffffffffffffffffffffffffffffffffffffff168273ffffffffffffffffffffffffffffffffffffffff16141561222d576040517f08c379a000000000000000000000000000000000000000000000000000000000815260040161222490613565565b60405180910390fd5b61223681611516565b15612276576040517f08c379a000000000000000000000000000000000000000000000000000000000815260040161226d90613445565b60405180910390fd5b61228260008383611fb3565b6001600360008473ffffffffffffffffffffffffffffffffffffffff1673ffffffffffffffffffffffffffffffffffffffff16815260200190815260200160002060008282546122d29190613719565b92505081905550816002600083815260200190815260200160002060006101000a81548173ffffffffffffffffffffffffffffffffffffffff021916908373ffffffffffffffffffffffffffffffffffffffff160217905550808273ffffffffffffffffffffffffffffffffffffffff16600073ffffffffffffffffffffffffffffffffffffffff167fddf252ad1be2c89b69c2b068fc378daa952ba7f163c4a11628f55a4df523b3ef60405160405180910390a45050565b828054612397906138e4565b90600052602060002090601f0160209004810192826123b95760008555612400565b82601f106123d257805160ff1916838001178555612400565b82800160010185558215612400579182015b828111156123ff5782518255916020019190600101906123e4565b5b50905061240d9190612411565b5090565b5b8082111561242a576000816000905550600101612412565b5090565b600061244161243c84613691565b613660565b90508281526020810184848401111561245957600080fd5b6124648482856138a2565b509392505050565b60008135905061247b81613a5d565b92915050565b60008135905061249081613a74565b92915050565b6000813590506124a581613a8b565b92915050565b6000815190506124ba81613a8b565b92915050565b600082601f8301126124d157600080fd5b81356124e184826020860161242e565b91505092915050565b6000813590506124f981613aa2565b92915050565b60006020828403121561251157600080fd5b600061251f8482850161246c565b91505092915050565b6000806040838503121561253b57600080fd5b60006125498582860161246c565b925050602061255a8582860161246c565b9150509250929050565b60008060006060848603121561257957600080fd5b60006125878682870161246c565b93505060206125988682870161246c565b92505060406125a9868287016124ea565b9150509250925092565b600080600080608085870312156125c957600080fd5b60006125d78782880161246c565b94505060206125e88782880161246c565b93505060406125f9878288016124ea565b925050606085013567ffffffffffffffff81111561261657600080fd5b612622878288016124c0565b91505092959194509250565b6000806040838503121561264157600080fd5b600061264f8582860161246c565b925050602061266085828601612481565b9150509250929050565b6000806040838503121561267d57600080fd5b600061268b8582860161246c565b925050602061269c858286016124ea565b9150509250929050565b6000602082840312156126b857600080fd5b60006126c684828501612496565b91505092915050565b6000602082840312156126e157600080fd5b60006126ef848285016124ab565b91505092915050565b60006020828403121561270a57600080fd5b6000612718848285016124ea565b91505092915050565b61272a8161382e565b82525050565b61273981613840565b82525050565b600061274a826136d6565b61275481856136ec565b93506127648185602086016138b1565b61276d81613a4c565b840191505092915050565b6000612783826136e1565b61278d81856136fd565b935061279d8185602086016138b1565b6127a681613a4c565b840191505092915050565b60006127bc826136e1565b6127c6818561370e565b93506127d68185602086016138b1565b80840191505092915050565b600081546127ef816138e4565b6127f9818661370e565b94506001821660008114612814576001811461282557612858565b60ff19831686528186019350612858565b61282e856136c1565b60005b8381101561285057815481890152600182019150602081019050612831565b838801955050505b50505092915050565b600061286e6032836136fd565b91507f4552433732313a207472616e7366657220746f206e6f6e20455243373231526560008301527f63656976657220696d706c656d656e74657200000000000000000000000000006020830152604082019050919050565b60006128d4601c836136fd565b91507f4552433732313a20746f6b656e20616c7265616479206d696e746564000000006000830152602082019050919050565b6000612914600a8361370e565b91507f54484952445f574f5244000000000000000000000000000000000000000000006000830152600a82019050919050565b60006129546024836136fd565b91507f4552433732313a207472616e7366657220746f20746865207a65726f2061646460008301527f72657373000000000000000000000000000000000000000000000000000000006020830152604082019050919050565b60006129ba6019836136fd565b91507f4552433732313a20617070726f766520746f2063616c6c6572000000000000006000830152602082019050919050565b60006129fa60638361370e565b91507f222c20226465736372697074696f6e223a20224120686967686c79206163636c60008301527f61696d656420636f6c6c656374696f6e206f6620737175617265732e222c202260208301527f696d616765223a2022646174613a696d6167652f7376672b786d6c3b6261736560408301527f36342c00000000000000000000000000000000000000000000000000000000006060830152606382019050919050565b6000612aac600b8361370e565b91507f5345434f4e445f574f52440000000000000000000000000000000000000000006000830152600b82019050919050565b6000612aec6023836136fd565b91507f534f4c44204f55543a205468657265732061206d696e74206c696d6974206f6660008301527f20353000000000000000000000000000000000000000000000000000000000006020830152604082019050919050565b6000612b52602c836136fd565b91507f4552433732313a206f70657261746f7220717565727920666f72206e6f6e657860008301527f697374656e7420746f6b656e00000000000000000000000000000000000000006020830152604082019050919050565b6000612bb8600d8361370e565b91507f3c2f746578743e3c2f7376673e000000000000000000000000000000000000006000830152600d82019050919050565b6000612bf86038836136fd565b91507f4552433732313a20617070726f76652063616c6c6572206973206e6f74206f7760008301527f6e6572206e6f7220617070726f76656420666f7220616c6c00000000000000006020830152604082019050919050565b6000612c5e602a836136fd565b91507f4552433732313a2062616c616e636520717565727920666f7220746865207a6560008301527f726f2061646472657373000000000000000000000000000000000000000000006020830152604082019050919050565b6000612cc46029836136fd565b91507f4552433732313a206f776e657220717565727920666f72206e6f6e657869737460008301527f656e7420746f6b656e00000000000000000000000000000000000000000000006020830152604082019050919050565b6000612d2a602e836136fd565b91507f45524337323155524953746f726167653a2055524920736574206f66206e6f6e60008301527f6578697374656e7420746f6b656e0000000000000000000000000000000000006020830152604082019050919050565b6000612d9060028361370e565b91507f227d0000000000000000000000000000000000000000000000000000000000006000830152600282019050919050565b6000612dd06020836136fd565b91507f4552433732313a206d696e7420746f20746865207a65726f20616464726573736000830152602082019050919050565b6000612e106031836136fd565b91507f45524337323155524953746f726167653a2055524920717565727920666f722060008301527f6e6f6e6578697374656e7420746f6b656e0000000000000000000000000000006020830152604082019050919050565b6000612e76602c836136fd565b91507f4552433732313a20617070726f76656420717565727920666f72206e6f6e657860008301527f697374656e7420746f6b656e00000000000000000000000000000000000000006020830152604082019050919050565b6000612edc6029836136fd565b91507f4552433732313a207472616e73666572206f6620746f6b656e2074686174206960008301527f73206e6f74206f776e00000000000000000000000000000000000000000000006020830152604082019050919050565b6000612f42602f836136fd565b91507f4552433732314d657461646174613a2055524920717565727920666f72206e6f60008301527f6e6578697374656e7420746f6b656e00000000000000000000000000000000006020830152604082019050919050565b6000612fa8600a8361370e565b91507f7b226e616d65223a2022000000000000000000000000000000000000000000006000830152600a82019050919050565b6000612fe86021836136fd565b91507f4552433732313a20617070726f76616c20746f2063757272656e74206f776e6560008301527f72000000000000000000000000000000000000000000000000000000000000006020830152604082019050919050565b600061304e600a8361370e565b91507f46495253545f574f5244000000000000000000000000000000000000000000006000830152600a82019050919050565b600061308e601d8361370e565b91507f646174613a6170706c69636174696f6e2f6a736f6e3b6261736536342c0000006000830152601d82019050919050565b60006130ce6031836136fd565b91507f4552433732313a207472616e736665722063616c6c6572206973206e6f74206f60008301527f776e6572206e6f7220617070726f7665640000000000000000000000000000006020830152604082019050919050565b600061313460058361370e565b91507f434f4c4f520000000000000000000000000000000000000000000000000000006000830152600582019050919050565b61317081613898565b82525050565b600061318282846127b1565b915081905092915050565b600061319982856127b1565b91506131a582846127b1565b91508190509392505050565b60006131bd82866127b1565b91506131c982856127b1565b91506131d582846127b1565b9150819050949350505050565b60006131ee82876127e2565b91506131fa82866127b1565b915061320682856127e2565b915061321282846127b1565b915061321d82612bab565b915081905095945050505050565b600061323682612907565b915061324282846127b1565b915081905092915050565b600061325882612a9f565b915061326482846127b1565b915081905092915050565b600061327a82612f9b565b915061328682856127b1565b9150613291826129ed565b915061329d82846127b1565b91506132a882612d83565b91508190509392505050565b60006132bf82613041565b91506132cb82846127b1565b915081905092915050565b60006132e182613081565b91506132ed82846127b1565b915081905092915050565b600061330382613127565b915061330f82846127b1565b915081905092915050565b600060208201905061332f6000830184612721565b92915050565b600060808201905061334a6000830187612721565b6133576020830186612721565b6133646040830185613167565b8181036060830152613376818461273f565b905095945050505050565b60006040820190506133966000830185612721565b6133a36020830184613167565b9392505050565b60006020820190506133bf6000830184612730565b92915050565b600060208201905081810360008301526133df8184612778565b905092915050565b600060608201905081810360008301526134018186612778565b90506134106020830185613167565b61341d6040830184612721565b949350505050565b6000602082019050818103600083015261343e81612861565b9050919050565b6000602082019050818103600083015261345e816128c7565b9050919050565b6000602082019050818103600083015261347e81612947565b9050919050565b6000602082019050818103600083015261349e816129ad565b9050919050565b600060208201905081810360008301526134be81612adf565b9050919050565b600060208201905081810360008301526134de81612b45565b9050919050565b600060208201905081810360008301526134fe81612beb565b9050919050565b6000602082019050818103600083015261351e81612c51565b9050919050565b6000602082019050818103600083015261353e81612cb7565b9050919050565b6000602082019050818103600083015261355e81612d1d565b9050919050565b6000602082019050818103600083015261357e81612dc3565b9050919050565b6000602082019050818103600083015261359e81612e03565b9050919050565b600060208201905081810360008301526135be81612e69565b9050919050565b600060208201905081810360008301526135de81612ecf565b9050919050565b600060208201905081810360008301526135fe81612f35565b9050919050565b6000602082019050818103600083015261361e81612fdb565b9050919050565b6000602082019050818103600083015261363e816130c1565b9050919050565b600060208201905061365a6000830184613167565b92915050565b6000604051905081810181811067ffffffffffffffff8211171561368757613686613a1d565b5b8060405250919050565b600067ffffffffffffffff8211156136ac576136ab613a1d565b5b601f19601f8301169050602081019050919050565b60008190508160005260206000209050919050565b600081519050919050565b600081519050919050565b600082825260208201905092915050565b600082825260208201905092915050565b600081905092915050565b600061372482613898565b915061372f83613898565b9250827fffffffffffffffffffffffffffffffffffffffffffffffffffffffffffffffff0382111561376457613763613990565b5b828201905092915050565b600061377a82613898565b915061378583613898565b925082613795576137946139bf565b5b828204905092915050565b60006137ab82613898565b91506137b683613898565b9250817fffffffffffffffffffffffffffffffffffffffffffffffffffffffffffffffff04831182151516156137ef576137ee613990565b5b828202905092915050565b600061380582613898565b915061381083613898565b92508282101561382357613822613990565b5b828203905092915050565b600061383982613878565b9050919050565b60008115159050919050565b60007fffffffff0000000000000000000000000000000000000000000000000000000082169050919050565b600073ffffffffffffffffffffffffffffffffffffffff82169050919050565b6000819050919050565b82818337600083830152505050565b60005b838110156138cf5780820151818401526020810190506138b4565b838111156138de576000848401525b50505050565b600060028204905060018216806138fc57607f821691505b602082108114156139105761390f6139ee565b5b50919050565b600061392182613898565b91507fffffffffffffffffffffffffffffffffffffffffffffffffffffffffffffffff82141561395457613953613990565b5b600182019050919050565b600061396a82613898565b915061397583613898565b925082613985576139846139bf565b5b828206905092915050565b7f4e487b7100000000000000000000000000000000000000000000000000000000600052601160045260246000fd5b7f4e487b7100000000000000000000000000000000000000000000000000000000600052601260045260246000fd5b7f4e487b7100000000000000000000000000000000000000000000000000000000600052602260045260246000fd5b7f4e487b7100000000000000000000000000000000000000000000000000000000600052604160045260246000fd5b6000601f19601f8301169050919050565b613a668161382e565b8114613a7157600080fd5b50565b613a7d81613840565b8114613a8857600080fd5b50565b613a948161384c565b8114613a9f57600080fd5b50565b613aab81613898565b8114613ab657600080fd5b5056fe416e204e465420772f20494420257320686173206265656e206d696e74656420746f2025734142434445464748494a4b4c4d4e4f505152535455565758595a6162636465666768696a6b6c6d6e6f707172737475767778797a303132333435363738392b2fa2646970667358221220a36a5a4fd279c825fee07d4c9f25bf06bfe14ffe08d3e33040f5da15afbc7c7764736f6c634300080000333c73766720786d6c6e733d27687474703a2f2f7777772e77332e6f72672f323030302f73766727207072657365727665417370656374526174696f3d27784d696e594d696e206d656574272076696577426f783d273020302033353020333530273e3c7374796c653e2e62617365207b2066696c6c3a2077686974653b20666f6e742d66616d696c793a2073657269663b20666f6e742d73697a653a20323470783b207d3c2f7374796c653e3c726563742077696474683d273130302527206865696768743d2731303025272066696c6c3d27272f3e3c7465787420783d273530252720793d273530252720636c6173733d27626173652720646f6d696e616e742d626173656c696e653d276d6964646c652720746578742d616e63686f723d276d6964646c65273e",
  "linkReferences": {},
  "deployedLinkReferences": {}
}